{"contracts/test/SampleRecipient.sol":{"SampleRecipient":{"abi":[{"anonymous":false,"inputs":[{"indexed":false,"internalType":"address","name":"txOrigin","type":"address"},{"indexed":false,"internalType":"address","name":"msgSender","type":"address"},{"indexed":false,"internalType":"string","name":"message","type":"string"}],"name":"Sender","type":"event"},{"inputs":[],"name":"reverting","outputs":[],"stateMutability":"nonpayable","type":"function"},{"inputs":[{"internalType":"string","name":"message","type":"string"}],"name":"something","outputs":[],"stateMutability":"nonpayable","type":"function"}],"evm":{"bytecode":{"linkReferences":{},"object":"608060405234801561001057600080fd5b5061023e806100206000396000f3fe608060405234801561001057600080fd5b50600436106100365760003560e01c806325d9185c1461003b578063d1f9cf0e14610045575b600080fd5b610043610058565b005b6100436100533660046100e6565b610092565b60405162461bcd60e51b815260206004820152600b60248201526a1d195cdd081c995d995c9d60aa1b604482015260640160405180910390fd5b7f603c3fe9b00ecddbd86daa6cbfe9a7f26505792913b8d1dec79052d86b5f79df3233836040516100c593929190610197565b60405180910390a150565b634e487b7160e01b600052604160045260246000fd5b6000602082840312156100f857600080fd5b813567ffffffffffffffff8082111561011057600080fd5b818401915084601f83011261012457600080fd5b813581811115610136576101366100d0565b604051601f8201601f19908116603f0116810190838211818310171561015e5761015e6100d0565b8160405282815287602084870101111561017757600080fd5b826020860160208301376000928101602001929092525095945050505050565b600060018060a01b038086168352602081861681850152606060408501528451915081606085015260005b828110156101de578581018201518582016080015281016101c2565b828111156101f0576000608084870101525b5050601f01601f19169190910160800194935050505056fea2646970667358221220cb70f47d0bbefcd3adce04ac4794365cb93301ea83c7c2a045d96b822a0da7f064736f6c634300080f0033","opcodes":"PUSH1 0x80 PUSH1 0x40 MSTORE CALLVALUE DUP1 ISZERO PUSH2 0x10 JUMPI PUSH1 0x0 DUP1 REVERT JUMPDEST POP PUSH2 0x23E DUP1 PUSH2 0x20 PUSH1 0x0 CODECOPY PUSH1 0x0 RETURN INVALID PUSH1 0x80 PUSH1 0x40 MSTORE CALLVALUE DUP1 ISZERO PUSH2 0x10 JUMPI PUSH1 0x0 DUP1 REVERT JUMPDEST POP PUSH1 0x4 CALLDATASIZE LT PUSH2 0x36 JUMPI PUSH1 0x0 CALLDATALOAD PUSH1 0xE0 SHR DUP1 PUSH4 0x25D9185C EQ PUSH2 0x3B JUMPI DUP1 PUSH4 0xD1F9CF0E EQ PUSH2 0x45 JUMPI JUMPDEST PUSH1 0x0 DUP1 REVERT JUMPDEST PUSH2 0x43 PUSH2 0x58 JUMP JUMPDEST STOP JUMPDEST PUSH2 0x43 PUSH2 0x53 CALLDATASIZE PUSH1 0x4 PUSH2 0xE6 JUMP JUMPDEST PUSH2 0x92 JUMP JUMPDEST PUSH1 0x40 MLOAD PUSH3 0x461BCD PUSH1 0xE5 SHL DUP2 MSTORE PUSH1 0x20 PUSH1 0x4 DUP3 ADD MSTORE PUSH1 0xB PUSH1 0x24 DUP3 ADD MSTORE PUSH11 0x1D195CDD081C995D995C9D PUSH1 0xAA SHL PUSH1 0x44 DUP3 ADD MSTORE PUSH1 0x64 ADD PUSH1 0x40 MLOAD DUP1 SWAP2 SUB SWAP1 REVERT JUMPDEST PUSH32 0x603C3FE9B00ECDDBD86DAA6CBFE9A7F26505792913B8D1DEC79052D86B5F79DF ORIGIN CALLER DUP4 PUSH1 0x40 MLOAD PUSH2 0xC5 SWAP4 SWAP3 SWAP2 SWAP1 PUSH2 0x197 JUMP JUMPDEST PUSH1 0x40 MLOAD DUP1 SWAP2 SUB SWAP1 LOG1 POP JUMP JUMPDEST PUSH4 0x4E487B71 PUSH1 0xE0 SHL PUSH1 0x0 MSTORE PUSH1 0x41 PUSH1 0x4 MSTORE PUSH1 0x24 PUSH1 0x0 REVERT JUMPDEST PUSH1 0x0 PUSH1 0x20 DUP3 DUP5 SUB SLT ISZERO PUSH2 0xF8 JUMPI PUSH1 0x0 DUP1 REVERT JUMPDEST DUP2 CALLDATALOAD PUSH8 0xFFFFFFFFFFFFFFFF DUP1 DUP3 GT ISZERO PUSH2 0x110 JUMPI PUSH1 0x0 DUP1 REVERT JUMPDEST DUP2 DUP5 ADD SWAP2 POP DUP5 PUSH1 0x1F DUP4 ADD SLT PUSH2 0x124 JUMPI PUSH1 0x0 DUP1 REVERT JUMPDEST DUP2 CALLDATALOAD DUP2 DUP2 GT ISZERO PUSH2 0x136 JUMPI PUSH2 0x136 PUSH2 0xD0 JUMP JUMPDEST PUSH1 0x40 MLOAD PUSH1 0x1F DUP3 ADD PUSH1 0x1F NOT SWAP1 DUP2 AND PUSH1 0x3F ADD AND DUP2 ADD SWAP1 DUP4 DUP3 GT DUP2 DUP4 LT OR ISZERO PUSH2 0x15E JUMPI PUSH2 0x15E PUSH2 0xD0 JUMP JUMPDEST DUP2 PUSH1 0x40 MSTORE DUP3 DUP2 MSTORE DUP8 PUSH1 0x20 DUP5 DUP8 ADD ADD GT ISZERO PUSH2 0x177 JUMPI PUSH1 0x0 DUP1 REVERT JUMPDEST DUP3 PUSH1 0x20 DUP7 ADD PUSH1 0x20 DUP4 ADD CALLDATACOPY PUSH1 0x0 SWAP3 DUP2 ADD PUSH1 0x20 ADD SWAP3 SWAP1 SWAP3 MSTORE POP SWAP6 SWAP5 POP POP POP POP POP JUMP JUMPDEST PUSH1 0x0 PUSH1 0x1 DUP1 PUSH1 0xA0 SHL SUB DUP1 DUP7 AND DUP4 MSTORE PUSH1 0x20 DUP2 DUP7 AND DUP2 DUP6 ADD MSTORE PUSH1 0x60 PUSH1 0x40 DUP6 ADD MSTORE DUP5 MLOAD SWAP2 POP DUP2 PUSH1 0x60 DUP6 ADD MSTORE PUSH1 0x0 JUMPDEST DUP3 DUP2 LT ISZERO PUSH2 0x1DE JUMPI DUP6 DUP2 ADD DUP3 ADD MLOAD DUP6 DUP3 ADD PUSH1 0x80 ADD MSTORE DUP2 ADD PUSH2 0x1C2 JUMP JUMPDEST DUP3 DUP2 GT ISZERO PUSH2 0x1F0 JUMPI PUSH1 0x0 PUSH1 0x80 DUP5 DUP8 ADD ADD MSTORE JUMPDEST POP POP PUSH1 0x1F ADD PUSH1 0x1F NOT AND SWAP2 SWAP1 SWAP2 ADD PUSH1 0x80 ADD SWAP5 SWAP4 POP POP POP POP JUMP INVALID LOG2 PUSH5 0x6970667358 0x22 SLT KECCAK256 0xCB PUSH17 0xF47D0BBEFCD3ADCE04AC4794365CB93301 0xEA DUP4 0xC7 0xC2 LOG0 GASLIMIT 0xD9 PUSH12 0x822A0DA7F064736F6C634300 ADDMOD 0xF STOP CALLER "},"methodIdentifiers":{"reverting()":"25d9185c","something(string)":"d1f9cf0e"}}}}}